:0400000000CE00002E
:0400010000CE00002D
:0400020000D000002A
:0400030000D0000029
:0400040000D1000027
:0400050000D1000026
:0400060000D2000024
:0400070000D2000023
:0400080000D3000021
:0400090000D3000020
:04000A0000D400001E
:04000B0000D400001D
:04000C0000D500001B
:04000D0000D500001A
:04000E0000D5000019
:04000F0000D5000018
:0400100000D7000015
:0400110000D6000015
:0400120000D7000013
:0400130000D7000012
:0400140000D8000010
:0400150000D7000010
:0400160000D700000F
:0400170000D800000D
:0400180000D800000C
:0400190000DA000009
:04001A0000DA000008
:04001B0000DA000007
:04001C0000DA000006
:04001D0000DC000003
:04001E0000DC000002
:04001F0000DB000002
:0400200000DB000001
:0400210000DC0000FF
:0400220000DB0000FF
:0400230000DB0000FE
:0400240000DB0000FD
:0400250000DC0000FB
:0400260000DC0000FA
:0400270000DC0000F9
:0400280000DD0000F7
:0400290000DD0000F6
:04002A0000DD0000F5
:04002B0000DE0000F3
:04002C0000DE0000F2
:04002D0000DF0000F0
:04002E0000DF0000EF
:04002F0000E00000ED
:0400300000E10000EB
:0400310000DE0000ED
:0400320000DF0000EB
:0400330000E10000E8
:0400340000E00000E8
:0400350000E20000E5
:0400360000E40000E2
:0400370000E10000E4
:0400380000E20000E2
:0400390000E20000E1
:04003A0000E40000DE
:04003B0000E50000DC
:04003C0000E30000DD
:04003D0000E30000DC
:04003E0000E50000D9
:04003F0000E50000D8
:0400400000E50000D7
:0400410000E50000D6
:0400420000E50000D5
:0400430000E60000D3
:0400440000E70000D1
:0400450000E60000D1
:0400460000E70000CF
:0400470000E70000CE
:0400480000E80000CC
:0400490000E80000CB
:04004A0000E80000CA
:04004B0000E80000C9
:04004C0000E90000C7
:04004D0000E90000C6
:04004E0000EA0000C4
:04004F0000EB0000C2
:0400500000EC0000C0
:0400510000EC0000BF
:0400520000EC0000BE
:0400530000EC0000BD
:0400540000EC0000BC
:0400550000EC0000BB
:0400560000EC0000BA
:0400570000ED0000B8
:0400580000EE0000B6
:0400590000EE0000B5
:04005A0000EF0000B3
:04005B0000EF0000B2
:04005C0000F00000B0
:04005D0000F00000AF
:04005E0000F00000AE
:04005F0000EF0000AE
:0400600000EF0000AD
:0400610000F00000AB
:0400620000F10000A9
:0400630000F10000A8
:0400640000F10000A7
:0400650000F10000A6
:0400660000F20000A4
:0400670000F20000A3
:0400680000F40000A0
:0400690000F400009F
:04006A0000F400009E
:04006B0000F500009C
:04006C0000F500009B
:04006D0000F500009A
:04006E0000F5000099
:04006F0000F5000098
:0400700000F5000097
:0400710000F5000096
:0400720000F5000095
:0400730000F6000093
:0400740000F6000092
:0400750000F6000091
:0400760000F6000090
:0400770000F600008F
:0400780000F800008C
:0400790000F800008B
:04007A0000F700008B
:04007B0000F700008A
:04007C0000F7000089
:04007D0000F7000088
:04007E0000F8000086
:04007F0000F8000085
:0400800000F5000087
:0400810000F7000084
:0400820000F8000082
:0400830000F8000081
:0400840000F7000081
:0400850000F7000080
:0400860000F700007F
:0400870000F800007D
:0400880000F800007C
:0400890000F800007B
:04008A0000F800007A
:04008B0000F9000078
:04008C0000F9000077
:04008D0000F9000076
:04008E0000F9000075
:04008F0000F8000075
:0400900000F8000074
:0400910000F8000073
:0400920000F9000071
:0400930000F9000070
:0400940000F900006F
:0400950000F900006E
:0400960000F900006D
:0400970000F900006C
:0400980000FA00006A
:0400990000F900006A
:04009A0000F800006A
:04009B0000F8000069
:04009C0000F9000067
:04009D0000FA000065
:04009E0000FB000063
:04009F0000FB000062
:0400A00000CE00008E
:0400A10000CF00008C
:0400A20000D000008A
:0400A30000D1000088
:0400A40000D1000087
:0400A50000D2000085
:0400A60000D2000084
:0400A70000D3000082
:0400A80000D2000082
:0400A90000D3000080
:0400AA0000D300007F
:0400AB0000D400007D
:0400AC0000D500007B
:0400AD0000D500007A
:0400AE0000D5000079
:0400AF0000D5000078
:0400B00000D7000075
:0400B10000D6000075
:0400B20000D7000073
:0400B30000D8000071
:0400B40000D8000070
:0400B50000D7000070
:0400B60000D800006E
:0400B70000D800006D
:0400B80000D800006C
:0400B90000DA000069
:0400BA0000DA000068
:0400BB0000DA000067
:0400BC0000DA000066
:0400BD0000DB000064
:0400BE0000DC000062
:0400BF0000DB000062
:0400C00000DB000061
:0400C10000DB000060
:0400C20000DB00005F
:0400C30000DB00005E
:0400C40000DB00005D
:0400C50000DC00005B
:0400C60000DD000059
:0400C70000DD000058
:0400C80000DD000057
:0400C90000DD000056
:0400CA0000DE000054
:0400CB0000DE000053
:0400CC0000DF000051
:0400CD0000DF000050
:0400CE0000DF00004F
:0400CF0000DF00004E
:0400D00000DF00004D
:0400D10000DF00004C
:0400D20000E3000047
:0400D30000E3000046
:0400D40000DE00004A
:0400D50000DE000049
:0400D60000E2000044
:0400D70000E3000042
:0400D80000E2000042
:0400D90000E2000041
:0400DA0000E400003E
:0400DB0000E500003C
:0400DC0000E300003D
:0400DD0000E400003B
:0400DE0000E5000039
:0400DF0000E5000038
:0400E00000E5000037
:0400E10000E4000037
:0400E20000E5000035
:0400E30000E6000033
:0400E40000E7000031
:0400E50000E7000030
:0400E60000E700002F
:0400E70000E800002D
:0400E80000E700002D
:0400E90000E800002B
:0400EA0000E800002A
:0400EB0000E8000029
:0400EC0000E9000027
:0400ED0000EA000025
:0400EE0000EA000024
:0400EF0000EB000022
:0400F00000EA000022
:0400F10000EB000020
:0400F20000EC00001E
:0400F30000EC00001D
:0400F40000EC00001C
:0400F50000ED00001A
:0400F60000EE000018
:0400F70000EE000017
:0400F80000ED000017
:0400F90000EE000015
:0400FA0000EE000014
:0400FB0000EF000012
:0400FC0000F0000010
:0400FD0000F000000F
:0400FE0000F000000E
:0400FF0000F000000D
:0401000000F000000B
:0401010000F000000A
:0401020000F1000008
:0401030000F2000006
:0401040000F2000005
:0401050000F3000003
:0401060000F3000002
:0401070000F4000000
:0401080000F3000000
:0401090000F30000FF
:04010A0000F40000FD
:04010B0000F50000FB
:04010C0000F50000FA
:04010D0000F40000FA
:04010E0000F40000F9
:04010F0000F50000F7
:0401100000F40000F7
:0401110000F50000F5
:0401120000F50000F4
:0401130000F50000F3
:0401140000F50000F2
:0401150000F50000F1
:0401160000F50000F0
:0401170000F50000EF
:0401180000F50000EE
:0401190000F50000ED
:04011A0000F50000EC
:04011B0000F60000EA
:04011C0000F60000E9
:04011D0000F60000E8
:04011E0000F60000E7
:04011F0000F70000E5
:0401200000F60000E5
:0401210000F70000E3
:0401220000F80000E1
:0401230000F80000E0
:0401240000F70000E0
:0401250000F70000DF
:0401260000F80000DD
:0401270000F80000DC
:0401280000F80000DB
:0401290000F80000DA
:04012A0000F80000D9
:04012B0000F80000D8
:04012C0000F90000D6
:04012D0000F90000D5
:04012E0000F90000D4
:04012F0000F90000D3
:0401300000F90000D2
:0401310000F90000D1
:0401320000F80000D1
:0401330000F80000D0
:0401340000F80000CF
:0401350000F80000CE
:0401360000F80000CD
:0401370000F80000CC
:0401380000F90000CA
:0401390000F90000C9
:04013A0000F90000C8
:04013B0000FA0000C6
:04013C0000FC0000C3
:04013D0000FD0000C1
:04013E0000FE0000BF
:04013F0000FE0000BE
:0401400000CF0000EC
:0401410000D00000EA
:0401420000D10000E8
:0401430000D20000E6
:0401440000D20000E5
:0401450000D20000E4
:0401460000D30000E2
:0401470000D30000E1
:0401480000D30000E0
:0401490000D30000DF
:04014A0000D40000DD
:04014B0000D50000DB
:04014C0000D50000DA
:04014D0000D50000D9
:04014E0000D60000D7
:04014F0000D60000D6
:0401500000D60000D5
:0401510000D60000D4
:0401520000D70000D2
:0401530000D80000D0
:0401540000D80000CF
:0401550000D70000CF
:0401560000D80000CD
:0401570000D90000CB
:0401580000D90000CA
:0401590000DA0000C8
:04015A0000DA0000C7
:04015B0000DA0000C6
:04015C0000DA0000C5
:04015D0000DB0000C3
:04015E0000DB0000C2
:04015F0000DB0000C1
:0401600000DB0000C0
:0401610000DB0000BF
:0401620000DB0000BE
:0401630000DB0000BD
:0401640000DC0000BB
:0401650000DC0000BA
:0401660000DD0000B8
:0401670000DD0000B7
:0401680000DD0000B6
:0401690000DD0000B5
:04016A0000DE0000B3
:04016B0000DF0000B1
:04016C0000DF0000B0
:04016D0000DF0000AF
:04016E0000DF0000AE
:04016F0000DF0000AD
:0401700000E00000AB
:0401710000DE0000AC
:0401720000DE0000AB
:0401730000DF0000A9
:0401740000E00000A7
:0401750000E20000A4
:0401760000E40000A1
:0401770000E30000A1
:0401780000E30000A0
:0401790000E300009F
:04017A0000E400009D
:04017B0000E500009B
:04017C0000E300009C
:04017D0000E400009A
:04017E0000E5000098
:04017F0000E5000097
:0401800000E5000096
:0401810000E5000095
:0401820000E5000094
:0401830000E6000092
:0401840000E7000090
:0401850000E700008F
:0401860000E800008D
:0401870000E900008B
:0401880000E700008C
:0401890000E800008A
:04018A0000E8000089
:04018B0000E9000087
:04018C0000EA000085
:04018D0000EA000084
:04018E0000EA000083
:04018F0000EB000081
:0401900000EA000081
:0401910000EB00007F
:0401920000EB00007E
:0401930000EC00007C
:0401940000EC00007B
:0401950000ED000079
:0401960000EE000077
:0401970000EF000075
:0401980000EE000075
:0401990000EE000074
:04019A0000EF000072
:04019B0000EF000071
:04019C0000EF000070
:04019D0000F000006E
:04019E0000F000006D
:04019F0000F000006C
:0401A00000F000006B
:0401A10000F000006A
:0401A20000F0000069
:0401A30000F1000067
:0401A40000F2000065
:0401A50000F3000063
:0401A60000F3000062
:0401A70000F3000061
:0401A80000F2000061
:0401A90000F2000060
:0401AA0000F200005F
:0401AB0000F300005D
:0401AC0000F300005C
:0401AD0000F200005C
:0401AE0000F200005B
:0401AF0000F3000059
:0401B00000F4000057
:0401B10000F4000056
:0401B20000F4000055
:0401B30000F4000054
:0401B40000F4000053
:0401B50000F4000052
:0401B60000F4000051
:0401B70000F4000050
:0401B80000F400004F
:0401B90000F400004E
:0401BA0000F500004C
:0401BB0000F600004A
:0401BC0000F6000049
:0401BD0000F7000047
:0401BE0000F7000046
:0401BF0000F7000045
:0401C00000F7000044
:0401C10000F7000043
:0401C20000F8000041
:0401C30000F8000040
:0401C40000F800003F
:0401C50000F800003E
:0401C60000F800003D
:0401C70000F800003C
:0401C80000F800003B
:0401C90000F800003A
:0401CA0000F8000039
:0401CB0000F8000038
:0401CC0000F9000036
:0401CD0000F9000035
:0401CE0000F9000034
:0401CF0000F9000033
:0401D00000F8000033
:0401D10000F8000032
:0401D20000F8000031
:0401D30000F8000030
:0401D40000F800002F
:0401D50000F800002E
:0401D60000F900002C
:0401D70000F900002B
:0401D80000FB000028
:0401D90000FB000027
:0401DA0000FC000025
:0401DB0000FC000024
:0401DC0000FD000022
:0401DD0000FD000021
:0401DE0000FC000021
:0401DF0000FC000020
:0401E00000CF00004C
:0401E10000D000004A
:0401E20000D1000048
:0401E30000D2000046
:0401E40000D2000045
:0401E50000D2000044
:0401E60000D3000042
:0401E70000D4000040
:0401E80000D400003F
:0401E90000D400003E
:0401EA0000D500003C
:0401EB0000D500003B
:0401EC0000D500003A
:0401ED0000D5000039
:0401EE0000D5000038
:0401EF0000D5000037
:0401F00000D6000035
:0401F10000D7000033
:0401F20000D7000032
:0401F30000D8000030
:0401F40000D800002F
:0401F50000D700002F
:0401F60000D800002D
:0401F70000DA00002A
:0401F80000D900002A
:0401F90000DA000028
:0401FA0000DA000027
:0401FB0000DA000026
:0401FC0000DA000025
:0401FD0000DB000023
:0401FE0000DB000022
:0401FF0000DA000022
:0402000000DC00001E
:0402010000DC00001D
:0402020000DB00001D
:0402030000DC00001B
:0402040000DC00001A
:0402050000DC000019
:0402060000DC000018
:0402070000DD000016
:0402080000DD000015
:0402090000DD000014
:04020A0000DE000012
:04020B0000DF000010
:04020C0000DF00000F
:04020D0000DF00000E
:04020E0000DF00000D
:04020F0000DF00000C
:0402100000DE00000C
:0402110000DF00000A
:0402120000E1000007
:0402130000E2000005
:0402140000E1000005
:0402150000E1000004
:0402160000E1000003
:0402170000E0000003
:0402180000E30000FF
:0402190000E30000FE
:04021A0000E40000FC
:04021B0000E50000FA
:04021C0000E30000FB
:04021D0000E40000F9
:04021E0000E50000F7
:04021F0000E50000F6
:0402200000E60000F4
:0402210000E50000F4
:0402220000E50000F3
:0402230000E60000F1
:0402240000E60000F0
:0402250000E70000EE
:0402260000E70000ED
:0402270000E90000EA
:0402280000E70000EB
:0402290000E80000E9
:04022A0000E90000E7
:04022B0000E90000E6
:04022C0000EA0000E4
:04022D0000EA0000E3
:04022E0000EA0000E2
:04022F0000EA0000E1
:0402300000EB0000DF
:0402310000EC0000DD
:0402320000EC0000DC
:0402330000ED0000DA
:0402340000ED0000D9
:0402350000ED0000D8
:0402360000EE0000D6
:0402370000EE0000D5
:0402380000EE0000D4
:0402390000EF0000D2
:04023A0000EF0000D1
:04023B0000EF0000D0
:04023C0000EF0000CF
:04023D0000EF0000CE
:04023E0000F00000CC
:04023F0000F00000CB
:0402400000F00000CA
:0402410000EF0000CA
:0402420000EF0000C9
:0402430000F00000C7
:0402440000F10000C5
:0402450000F20000C3
:0402460000F20000C2
:0402470000F20000C1
:0402480000F10000C1
:0402490000F10000C0
:04024A0000F10000BF
:04024B0000F20000BD
:04024C0000F20000BC
:04024D0000F20000BB
:04024E0000F20000BA
:04024F0000F20000B9
:0402500000F40000B6
:0402510000F40000B5
:0402520000F40000B4
:0402530000F40000B3
:0402540000F40000B2
:0402550000F40000B1
:0402560000F40000B0
:0402570000F40000AF
:0402580000F40000AE
:0402590000F40000AD
:04025A0000F50000AB
:04025B0000F60000A9
:04025C0000F70000A7
:04025D0000F70000A6
:04025E0000F70000A5
:04025F0000F70000A4
:0402600000F70000A3
:0402610000F70000A2
:0402620000F70000A1
:0402630000F70000A0
:0402640000F800009E
:0402650000F800009D
:0402660000F800009C
:0402670000F700009C
:0402680000F800009A
:0402690000F8000099
:04026A0000F8000098
:04026B0000F8000097
:04026C0000F9000095
:04026D0000F9000094
:04026E0000F9000093
:04026F0000F9000092
:0402700000F7000093
:0402710000F7000092
:0402720000F8000090
:0402730000F900008E
:0402740000FA00008C
:0402750000FB00008A
:0402760000FB000089
:0402770000FC000087
:0402780000FD000085
:0402790000FC000085
:04027A0000FC000084
:04027B0000FD000082
:04027C0000FC000082
:04027D0000FC000081
:04027E0000FA000082
:04027F0000F9000082
:0402800000D00000AA
:0402810000D00000A9
:0402820000D10000A7
:0402830000D20000A5
:0402840000D20000A4
:0402850000D20000A3
:0402860000D30000A1
:0402870000D400009F
:0402880000D400009E
:0402890000D500009C
:04028A0000D500009B
:04028B0000D500009A
:04028C0000D5000099
:04028D0000D5000098
:04028E0000D5000097
:04028F0000D6000095
:0402900000D6000094
:0402910000D7000092
:0402920000D8000090
:0402930000D800008F
:0402940000D800008E
:0402950000D800008D
:0402960000D900008B
:0402970000DA000089
:0402980000D9000089
:0402990000D9000088
:04029A0000DA000086
:04029B0000DA000085
:04029C0000DB000083
:04029D0000DA000083
:04029E0000DA000082
:04029F0000DB000080
:0402A00000DC00007E
:0402A10000DB00007E
:0402A20000DB00007D
:0402A30000DC00007B
:0402A40000DC00007A
:0402A50000DC000079
:0402A60000DC000078
:0402A70000DD000076
:0402A80000DD000075
:0402A90000DE000073
:0402AA0000DE000072
:0402AB0000DE000071
:0402AC0000DE000070
:0402AD0000DE00006F
:0402AE0000DF00006D
:0402AF0000E000006B
:0402B00000E3000067
:0402B10000E2000067
:0402B20000E1000067
:0402B30000E0000067
:0402B40000E1000065
:0402B50000E2000063
:0402B60000E2000062
:0402B70000E400005F
:0402B80000E300005F
:0402B90000E300005E
:0402BA0000E400005C
:0402BB0000E400005B
:0402BC0000E300005B
:0402BD0000E4000059
:0402BE0000E5000057
:0402BF0000E4000057
:0402C00000E6000054
:0402C10000E5000054
:0402C20000E5000053
:0402C30000E6000051
:0402C40000E6000050
:0402C50000E700004E
:0402C60000E800004C
:0402C70000E900004A
:0402C80000E700004B
:0402C90000E8000049
:0402CA0000E9000047
:0402CB0000EA000045
:0402CC0000EA000044
:0402CD0000EB000042
:0402CE0000EB000041
:0402CF0000EB000040
:0402D00000EC00003E
:0402D10000EC00003D
:0402D20000ED00003B
:0402D30000ED00003A
:0402D40000ED000039
:0402D50000ED000038
:0402D60000ED000037
:0402D70000EE000035
:0402D80000EE000034
:0402D90000EF000032
:0402DA0000EF000031
:0402DB0000EF000030
:0402DC0000EF00002F
:0402DD0000EF00002E
:0402DE0000F000002C
:0402DF0000F000002B
:0402E00000F1000029
:0402E10000F1000028
:0402E20000F0000028
:0402E30000F1000026
:0402E40000F2000024
:0402E50000F2000023
:0402E60000F2000022
:0402E70000F2000021
:0402E80000F2000020
:0402E90000F200001F
:0402EA0000F200001E
:0402EB0000F300001C
:0402EC0000F300001B
:0402ED0000F300001A
:0402EE0000F3000019
:0402EF0000F3000018
:0402F00000F4000016
:0402F10000F4000015
:0402F20000F4000014
:0402F30000F4000013
:0402F40000F4000012
:0402F50000F4000011
:0402F60000F4000010
:0402F70000F400000F
:0402F80000F400000E
:0402F90000F400000D
:0402FA0000F500000B
:0402FB0000F6000009
:0402FC0000F6000008
:0402FD0000F6000007
:0402FE0000F6000006
:0402FF0000F6000005
:0403000000F7000002
:0403010000F7000001
:0403020000F6000001
:0403030000F70000FF
:0403040000F70000FE
:0403050000F80000FC
:0403060000F70000FC
:0403070000F70000FB
:0403080000F80000F9
:0403090000F80000F8
:04030A0000F80000F7
:04030B0000F80000F6
:04030C0000F80000F5
:04030D0000F80000F4
:04030E0000F90000F2
:04030F0000F90000F1
:0403100000F80000F1
:0403110000F90000EF
:0403120000FA0000ED
:0403130000FB0000EB
:0403140000FC0000E9
:0403150000FC0000E8
:0403160000FD0000E6
:0403170000FD0000E5
:0403180000FB0000E6
:0403190000FB0000E5
:04031A0000FB0000E4
:04031B0000FB0000E3
:04031C0000FB0000E2
:04031D0000FB0000E1
:04031E0000FB0000E0
:04031F0000FA0000E0
:0403200000D0000009
:0403210000D1000007
:0403220000D2000005
:0403230000D2000004
:0403240000D2000003
:0403250000D3000001
:0403260000D3000000
:0403270000D40000FE
:0403280000D40000FD
:0403290000D50000FB
:04032A0000D60000F9
:04032B0000D60000F8
:04032C0000D50000F8
:04032D0000D50000F7
:04032E0000D60000F5
:04032F0000D70000F3
:0403300000D70000F2
:0403310000D70000F1
:0403320000D80000EF
:0403330000D80000EE
:0403340000D80000ED
:0403350000D80000EC
:0403360000D90000EA
:0403370000DA0000E8
:0403380000DA0000E7
:0403390000D90000E7
:04033A0000DA0000E5
:04033B0000DB0000E3
:04033C0000DB0000E2
:04033D0000DA0000E2
:04033E0000DA0000E1
:04033F0000DB0000DF
:0403400000DB0000DE
:0403410000DA0000DE
:0403420000DB0000DC
:0403430000DC0000DA
:0403440000DD0000D8
:0403450000DC0000D8
:0403460000DD0000D6
:0403470000DE0000D4
:0403480000DD0000D4
:0403490000DE0000D2
:04034A0000DE0000D1
:04034B0000DE0000D0
:04034C0000DE0000CF
:04034D0000DE0000CE
:04034E0000DF0000CC
:04034F0000E00000CA
:0403500000DF0000CA
:0403510000E00000C8
:0403520000E00000C7
:0403530000DF0000C7
:0403540000E10000C4
:0403550000E10000C3
:0403560000E10000C2
:0403570000E20000C0
:0403580000E30000BE
:0403590000E20000BE
:04035A0000E30000BC
:04035B0000E40000BA
:04035C0000E30000BA
:04035D0000E40000B8
:04035E0000E50000B6
:04035F0000E40000B6
:0403600000E50000B4
:0403610000E50000B3
:0403620000E50000B2
:0403630000E60000B0
:0403640000E70000AE
:0403650000E70000AD
:0403660000E80000AB
:0403670000E90000A9
:0403680000E80000A9
:0403690000E80000A8
:04036A0000E90000A6
:04036B0000E90000A5
:04036C0000EA0000A3
:04036D0000EA0000A2
:04036E0000EB0000A0
:04036F0000EB00009F
:0403700000EC00009D
:0403710000EC00009C
:0403720000ED00009A
:0403730000ED000099
:0403740000ED000098
:0403750000ED000097
:0403760000EE000095
:0403770000EE000094
:0403780000EE000093
:0403790000EF000091
:04037A0000EF000090
:04037B0000EF00008F
:04037C0000EF00008E
:04037D0000EF00008D
:04037E0000F000008B
:04037F0000F1000089
:0403800000F2000087
:0403810000F1000087
:0403820000F1000086
:0403830000F1000085
:0403840000F1000084
:0403850000F2000082
:0403860000F2000081
:0403870000F2000080
:0403880000F300007E
:0403890000F200007E
:04038A0000F200007D
:04038B0000F300007B
:04038C0000F300007A
:04038D0000F3000079
:04038E0000F3000078
:04038F0000F4000076
:0403900000F4000075
:0403910000F4000074
:0403920000F4000073
:0403930000F5000071
:0403940000F5000070
:0403950000F500006F
:0403960000F500006E
:0403970000F500006D
:0403980000F400006D
:0403990000F500006B
:04039A0000F500006A
:04039B0000F6000068
:04039C0000F6000067
:04039D0000F6000066
:04039E0000F6000065
:04039F0000F6000064
:0403A00000F7000062
:0403A10000F6000062
:0403A20000F6000061
:0403A30000F6000060
:0403A40000F700005E
:0403A50000F700005D
:0403A60000F700005C
:0403A70000F700005B
:0403A80000F8000059
:0403A90000F8000058
:0403AA0000F8000057
:0403AB0000F8000056
:0403AC0000F7000056
:0403AD0000F8000054
:0403AE0000F8000053
:0403AF0000F9000051
:0403B00000FB00004E
:0403B10000FB00004D
:0403B20000FC00004B
:0403B30000FD000049
:0403B40000FD000048
:0403B50000FC000048
:0403B60000FB000048
:0403B70000FB000047
:0403B80000FB000046
:0403B90000FA000046
:0403BA0000FA000045
:0403BB0000FA000044
:0403BC0000FA000043
:0403BD0000FA000042
:0403BE0000FA000041
:0403BF0000FA000040
:0403C00000D1000068
:0403C10000D2000066
:0403C20000D2000065
:0403C30000D3000063
:0403C40000D3000062
:0403C50000D3000061
:0403C60000D400005F
:0403C70000D500005D
:0403C80000D400005D
:0403C90000D500005B
:0403CA0000D6000059
:0403CB0000D6000058
:0403CC0000D5000058
:0403CD0000D5000057
:0403CE0000D6000055
:0403CF0000D7000053
:0403D00000D7000052
:0403D10000D7000051
:0403D20000D7000050
:0403D30000D800004E
:0403D40000D900004C
:0403D50000D800004C
:0403D60000D900004A
:0403D70000DA000048
:0403D80000DA000047
:0403D90000D9000047
:0403DA0000DA000045
:0403DB0000DB000043
:0403DC0000DB000042
:0403DD0000DB000041
:0403DE0000DB000040
:0403DF0000DB00003F
:0403E00000DC00003D
:0403E10000DA00003E
:0403E20000DB00003C
:0403E30000DD000039
:0403E40000DD000038
:0403E50000DD000037
:0403E60000DD000036
:0403E70000DE000034
:0403E80000DD000034
:0403E90000DE000032
:0403EA0000DF000030
:0403EB0000DF00002F
:0403EC0000DF00002E
:0403ED0000DF00002D
:0403EE0000DF00002C
:0403EF0000E000002A
:0403F00000DF00002A
:0403F10000E1000027
:0403F20000E0000027
:0403F30000E0000026
:0403F40000E3000022
:0403F50000E3000021
:0403F60000E1000022
:0403F70000E300001F
:0403F80000E300001E
:0403F90000E200001E
:0403FA0000E300001C
:0403FB0000E400001A
:0403FC0000E300001A
:0403FD0000E4000018
:0403FE0000E5000016
:0403FF0000E4000016
:0404000000E5000013
:0404010000E5000012
:0404020000E5000011
:0404030000E700000E
:0404040000E800000C
:0404050000E800000B
:0404060000E9000009
:0404070000EA000007
:0404080000E8000008
:0404090000E8000007
:04040A0000E9000005
:04040B0000E9000004
:04040C0000EA000002
:04040D0000EA000001
:04040E0000EB0000FF
:04040F0000EB0000FE
:0404100000EC0000FC
:0404110000EC0000FB
:0404120000ED0000F9
:0404130000EE0000F7
:0404140000EE0000F6
:0404150000EE0000F5
:0404160000EE0000F4
:0404170000EE0000F3
:0404180000EE0000F2
:0404190000EF0000F0
:04041A0000EF0000EF
:04041B0000EF0000EE
:04041C0000EF0000ED
:04041D0000EF0000EC
:04041E0000F00000EA
:04041F0000F10000E8
:0404200000F10000E7
:0404210000F10000E6
:0404220000F10000E5
:0404230000F10000E4
:0404240000F10000E3
:0404250000F10000E2
:0404260000F10000E1
:0404270000F20000DF
:0404280000F20000DE
:0404290000F20000DD
:04042A0000F20000DC
:04042B0000F30000DA
:04042C0000F30000D9
:04042D0000F30000D8
:04042E0000F30000D7
:04042F0000F40000D5
:0404300000F40000D4
:0404310000F40000D3
:0404320000F40000D2
:0404330000F50000D0
:0404340000F50000CF
:0404350000F50000CE
:0404360000F50000CD
:0404370000F50000CC
:0404380000F50000CB
:0404390000F50000CA
:04043A0000F50000C9
:04043B0000F60000C7
:04043C0000F60000C6
:04043D0000F70000C4
:04043E0000F70000C3
:04043F0000F70000C2
:0404400000F70000C1
:0404410000F70000C0
:0404420000F60000C0
:0404430000F70000BE
:0404440000F70000BD
:0404450000F80000BB
:0404460000F80000BA
:0404470000F80000B9
:0404480000F70000B9
:0404490000F80000B7
:04044A0000F80000B6
:04044B0000F80000B5
:04044C0000F80000B4
:04044D0000F90000B2
:04044E0000FA0000B0
:04044F0000FB0000AE
:0404500000FC0000AC
:0404510000FC0000AB
:0404520000FC0000AA
:0404530000FD0000A8
:0404540000FC0000A8
:0404550000FB0000A8
:0404560000FA0000A8
:0404570000FA0000A7
:0404580000FB0000A5
:0404590000FB0000A4
:04045A0000FA0000A4
:04045B0000FA0000A3
:04045C0000FA0000A2
:04045D0000F90000A2
:04045E0000F90000A1
:04045F0000F80000A1
:0404600000D20000C6
:0404610000D20000C5
:0404620000D30000C3
:0404630000D30000C2
:0404640000D30000C1
:0404650000D40000BF
:0404660000D40000BE
:0404670000D50000BC
:0404680000D50000BB
:0404690000D60000B9
:04046A0000D70000B7
:04046B0000D60000B7
:04046C0000D50000B7
:04046D0000D50000B6
:04046E0000D60000B4
:04046F0000D70000B2
:0404700000D80000B0
:0404710000D70000B0
:0404720000D70000AF
:0404730000D80000AD
:0404740000D90000AB
:0404750000D90000AA
:0404760000D90000A9
:0404770000D90000A8
:0404780000DA0000A6
:0404790000D90000A6
:04047A0000DA0000A4
:04047B0000DB0000A2
:04047C0000DB0000A1
:04047D0000DB0000A0
:04047E0000DB00009F
:04047F0000DC00009D
:0404800000DD00009B
:0404810000DB00009C
:0404820000DB00009B
:0404830000DD000098
:0404840000DE000096
:0404850000DC000097
:0404860000DD000095
:0404870000DE000093
:0404880000DD000093
:0404890000DE000091
:04048A0000E000008E
:04048B0000E000008D
:04048C0000DF00008D
:04048D0000DF00008C
:04048E0000DF00008B
:04048F0000E0000089
:0404900000E1000087
:0404910000CC00009B
:0404920000B40000B2
:0404930000B40000B1
:0404940000CC000098
:0404950000DF000084
:0404960000E300007F
:0404970000E1000080
:0404980000E300007D
:0404990000E200007D
:04049A0000E300007B
:04049B0000E4000079
:04049C0000E3000079
:04049D0000E4000077
:04049E0000E5000075
:04049F0000E4000075
:0404A00000E6000072
:0404A10000E6000071
:0404A20000E6000070
:0404A30000E800006D
:0404A40000E800006C
:0404A50000E800006B
:0404A60000E800006A
:0404A70000E9000068
:0404A80000E8000068
:0404A90000E8000067
:0404AA0000E8000066
:0404AB0000E9000064
:0404AC0000E9000063
:0404AD0000EA000061
:0404AE0000EB00005F
:0404AF0000EB00005E
:0404B00000EC00005C
:0404B10000ED00005A
:0404B20000EE000058
:0404B30000EE000057
:0404B40000EE000056
:0404B50000EE000055
:0404B60000EE000054
:0404B70000EE000053
:0404B80000EF000051
:0404B90000EF000050
:0404BA0000F000004E
:0404BB0000F000004D
:0404BC0000EF00004D
:0404BD0000EF00004C
:0404BE0000F000004A
:0404BF0000F1000048
:0404C00000F0000048
:0404C10000F1000046
:0404C20000F1000045
:0404C30000F1000044
:0404C40000F1000043
:0404C50000F1000042
:0404C60000F2000040
:0404C70000F200003F
:0404C80000F300003D
:0404C90000F200003D
:0404CA0000F200003C
:0404CB0000F300003A
:0404CC0000F3000039
:0404CD0000F3000038
:0404CE0000F3000037
:0404CF0000F4000035
:0404D00000F4000034
:0404D10000F4000033
:0404D20000F4000032
:0404D30000F4000031
:0404D40000F500002F
:0404D50000F500002E
:0404D60000F500002D
:0404D70000F500002C
:0404D80000F500002B
:0404D90000F500002A
:0404DA0000F5000029
:0404DB0000F6000027
:0404DC0000F6000026
:0404DD0000F7000024
:0404DE0000F7000023
:0404DF0000F8000021
:0404E00000F7000021
:0404E10000F7000020
:0404E20000F700001F
:0404E30000F700001E
:0404E40000F700001D
:0404E50000F800001B
:0404E60000F800001A
:0404E70000F8000019
:0404E80000F8000018
:0404E90000F8000017
:0404EA0000F9000015
:0404EB0000F9000014
:0404EC0000F9000013
:0404ED0000FA000011
:0404EE0000FC00000E
:0404EF0000FD00000C
:0404F00000FB00000D
:0404F10000FB00000C
:0404F20000FB00000B
:0404F30000FB00000A
:0404F40000FB000009
:0404F50000FB000008
:0404F60000FB000007
:0404F70000FA000007
:0404F80000F9000007
:0404F90000F9000006
:0404FA0000F9000005
:0404FB0000F9000004
:0404FC0000FA000002
:0404FD0000F9000002
:0404FE0000F9000001
:0404FF0000F8000001
:0405000000D3000024
:0405010000D2000024
:0405020000D2000023
:0405030000D2000022
:0405040000D2000021
:0405050000D300001F
:0405060000D400001D
:0405070000D500001B
:0405080000D500001A
:0405090000D5000019
:04050A0000D5000018
:04050B0000D5000017
:04050C0000D6000015
:04050D0000D6000014
:04050E0000D6000013
:04050F0000D7000011
:0405100000D6000011
:0405110000D700000F
:0405120000D800000D
:0405130000D800000C
:0405140000D800000B
:0405150000D800000A
:0405160000D9000008
:0405170000DA000006
:0405180000D9000006
:0405190000DB000003
:04051A0000DC000001
:04051B0000DB000001
:04051C0000DA000001
:04051D0000DA000000
:04051E0000DB0000FE
:04051F0000DC0000FC
:0405200000DB0000FC
:0405210000DC0000FA
:0405220000DD0000F8
:0405230000DE0000F6
:0405240000DD0000F6
:0405250000DD0000F5
:0405260000DD0000F4
:0405270000DE0000F2
:0405280000DE0000F1
:0405290000DE0000F0
:04052A0000DF0000EE
:04052B0000DF0000ED
:04052C0000E00000EB
:04052D0000E00000EA
:04052E0000E00000E9
:04052F0000DF0000E9
:0405300000E20000E5
:04053100004B00007B
:040532000042000083
:040533000052000072
:04053400007600004D
:0405350000AF000013
:0405360000E30000DE
:0405370000E30000DD
:0405380000E10000DE
:0405390000E10000DD
:04053A0000E20000DB
:04053B0000E30000D9
:04053C0000E30000D8
:04053D0000E30000D7
:04053E0000E40000D5
:04053F0000E50000D3
:0405400000E60000D1
:0405410000E60000D0
:0405420000E70000CE
:0405430000E70000CD
:0405440000E70000CC
:0405450000E70000CB
:0405460000E80000C9
:0405470000E80000C8
:0405480000E80000C7
:0405490000E90000C5
:04054A0000E90000C4
:04054B0000E90000C3
:04054C0000E90000C2
:04054D0000EA0000C0
:04054E0000EB0000BE
:04054F0000EC0000BC
:0405500000EB0000BC
:0405510000EC0000BA
:0405520000EC0000B9
:0405530000EC0000B8
:0405540000ED0000B6
:0405550000EE0000B4
:0405560000EE0000B3
:0405570000EE0000B2
:0405580000EE0000B1
:0405590000F00000AE
:04055A0000F00000AD
:04055B0000EF0000AD
:04055C0000EE0000AD
:04055D0000EE0000AC
:04055E0000EF0000AA
:04055F0000EF0000A9
:0405600000F10000A6
:0405610000F10000A5
:0405620000F10000A4
:0405630000F10000A3
:0405640000F10000A2
:0405650000F10000A1
:0405660000F200009F
:0405670000F200009E
:0405680000F200009D
:0405690000F200009C
:04056A0000F200009B
:04056B0000F3000099
:04056C0000F4000097
:04056D0000F4000096
:04056E0000F4000095
:04056F0000F3000095
:0405700000F4000093
:0405710000F4000092
:0405720000F5000090
:0405730000F500008F
:0405740000F500008E
:0405750000F500008D
:0405760000F600008B
:0405770000F600008A
:0405780000F6000089
:0405790000F6000088
:04057A0000F5000088
:04057B0000F5000087
:04057C0000F5000086
:04057D0000F6000084
:04057E0000F6000083
:04057F0000F7000081
:0405800000F7000080
:0405810000F700007F
:0405820000F700007E
:0405830000F700007D
:0405840000F700007C
:0405850000F700007B
:0405860000F700007A
:0405870000F7000079
:0405880000F9000076
:0405890000F9000075
:04058A0000FA000073
:04058B0000FB000071
:04058C0000FB000070
:04058D0000FA000070
:04058E0000FA00006F
:04058F0000FB00006D
:0405900000FA00006D
:0405910000FA00006C
:0405920000FA00006B
:0405930000FA00006A
:0405940000FA000069
:0405950000FA000068
:0405960000FA000067
:0405970000FA000066
:0405980000F9000066
:0405990000F9000065
:04059A0000F9000064
:04059B0000F9000063
:04059C0000F9000062
:04059D0000F9000061
:04059E0000F8000061
:04059F0000F8000060
:0405A00000D2000085
:0405A10000D2000084
:0405A20000D2000083
:0405A30000D3000081
:0405A40000D3000080
:0405A50000D400007E
:0405A60000D500007C
:0405A70000D500007B
:0405A80000D6000079
:0405A90000D6000078
:0405AA0000D6000077
:0405AB0000D6000076
:0405AC0000D6000075
:0405AD0000D6000074
:0405AE0000D6000073
:0405AF0000D6000072
:0405B00000D7000070
:0405B10000D800006E
:0405B20000D900006C
:0405B30000D900006B
:0405B40000D900006A
:0405B50000D9000069
:0405B60000DA000067
:0405B70000DA000066
:0405B80000D9000066
:0405B90000DA000064
:0405BA0000DB000062
:0405BB0000DB000061
:0405BC0000DA000061
:0405BD0000DB00005F
:0405BE0000DC00005D
:0405BF0000DC00005C
:0405C00000DB00005C
:0405C10000DC00005A
:0405C20000DD000058
:0405C30000DD000057
:0405C40000DD000056
:0405C50000DD000055
:0405C60000DD000054
:0405C70000DE000052
:0405C80000DF000050
:0405C90000DF00004F
:0405CA0000DF00004E
:0405CB0000E000004C
:0405CC0000E000004B
:0405CD0000E000004A
:0405CE0000DF00004A
:0405CF0000DF000049
:0405D00000E2000045
:0405D10000510000D5
:0405D200003A0000EB
:0405D300004E0000D6
:0405D400006C0000B7
:0405D50000A800007A
:0405D60000E0000041
:0405D70000DF000041
:0405D80000E200003D
:0405D90000E200003C
:0405DA0000E200003B
:0405DB0000E3000039
:0405DC0000E4000037
:0405DD0000E4000036
:0405DE0000E4000035
:0405DF0000E6000032
:0405E00000E6000031
:0405E10000E6000030
:0405E20000E700002E
:0405E30000E700002D
:0405E40000E700002C
:0405E50000E700002B
:0405E60000E8000029
:0405E70000E9000027
:0405E80000E8000027
:0405E90000E9000025
:0405EA0000E9000024
:0405EB0000E9000023
:0405EC0000E9000022
:0405ED0000EA000020
:0405EE0000EB00001E
:0405EF0000EC00001C
:0405F00000EB00001C
:0405F10000EC00001A
:0405F20000ED000018
:0405F30000ED000017
:0405F40000ED000016
:0405F50000EE000014
:0405F60000EF000012
:0405F70000EE000012
:0405F80000EE000011
:0405F90000F000000E
:0405FA0000F000000D
:0405FB0000EF00000D
:0405FC0000EE00000D
:0405FD0000EE00000C
:0405FE0000EF00000A
:0405FF0000EF000009
:0406000000F0000006
:0406010000F0000005
:0406020000F0000004
:0406030000F0000003
:0406040000F1000001
:0406050000F20000FF
:0406060000F20000FE
:0406070000F30000FC
:0406080000F30000FB
:0406090000F30000FA
:04060A0000F30000F9
:04060B0000F40000F7
:04060C0000F40000F6
:04060D0000F40000F5
:04060E0000F40000F4
:04060F0000F40000F3
:0406100000F40000F2
:0406110000F40000F1
:0406120000F50000EF
:0406130000F50000EE
:0406140000F50000ED
:0406150000F50000EC
:0406160000F50000EB
:0406170000F60000E9
:0406180000F50000E9
:0406190000F50000E8
:04061A0000F50000E7
:04061B0000F60000E5
:04061C0000F60000E4
:04061D0000F60000E3
:04061E0000F70000E1
:04061F0000F70000E0
:0406200000F70000DF
:0406210000F70000DE
:0406220000F80000DC
:0406230000F80000DB
:0406240000F80000DA
:0406250000F80000D9
:0406260000F80000D8
:0406270000F90000D6
:0406280000FB0000D3
:0406290000FA0000D3
:04062A0000FA0000D2
:04062B0000FA0000D1
:04062C0000FA0000D0
:04062D0000F80000D1
:04062E0000F80000D0
:04062F0000F90000CE
:0406300000F90000CD
:0406310000F90000CC
:0406320000F90000CB
:0406330000F90000CA
:0406340000F90000C9
:0406350000F80000C9
:0406360000F80000C8
:0406370000F80000C7
:0406380000F90000C5
:0406390000F90000C4
:04063A0000F90000C3
:04063B0000F90000C2
:04063C0000F90000C1
:04063D0000F90000C0
:04063E0000F80000C0
:04063F0000F80000BF
:0406400000D10000E5
:0406410000D20000E3
:0406420000D30000E1
:0406430000D40000DF
:0406440000D50000DD
:0406450000D50000DC
:0406460000D50000DB
:0406470000D50000DA
:0406480000D60000D8
:0406490000D60000D7
:04064A0000D60000D6
:04064B0000D60000D5
:04064C0000D60000D4
:04064D0000D60000D3
:04064E0000D70000D1
:04064F0000D70000D0
:0406500000D80000CE
:0406510000D80000CD
:0406520000D80000CC
:0406530000D90000CA
:0406540000D90000C9
:0406550000D90000C8
:0406560000D90000C7
:0406570000DA0000C5
:0406580000D90000C5
:0406590000DA0000C3
:04065A0000DB0000C1
:04065B0000DB0000C0
:04065C0000DA0000C0
:04065D0000DB0000BE
:04065E0000DC0000BC
:04065F0000DC0000BB
:0406600000DC0000BA
:0406610000DD0000B8
:0406620000DD0000B7
:0406630000DD0000B6
:0406640000DD0000B5
:0406650000DD0000B4
:0406660000DE0000B2
:0406670000DE0000B1
:0406680000DF0000AF
:0406690000DF0000AE
:04066A0000DF0000AD
:04066B0000DF0000AC
:04066C0000DF0000AB
:04066D0000DF0000AA
:04066E0000E00000A8
:04066F0000E00000A7
:0406700000E20000A4
:04067100006F000016
:040672000033000051
:040673000040000043
:040674000061000021
:0406750000B30000CE
:0406760000E100009F
:0406770000E500009A
:0406780000E200009C
:0406790000E200009B
:04067A0000E3000099
:04067B0000E4000097
:04067C0000E4000096
:04067D0000E4000095
:04067E0000E5000093
:04067F0000E6000091
:0406800000E6000090
:0406810000E700008E
:0406820000E700008D
:0406830000E700008C
:0406840000E700008B
:0406850000E8000089
:0406860000E8000088
:0406870000E9000086
:0406880000E8000086
:0406890000E9000084
:04068A0000E9000083
:04068B0000E9000082
:04068C0000EA000080
:04068D0000EA00007F
:04068E0000EB00007D
:04068F0000EC00007B
:0406900000EB00007B
:0406910000EC000079
:0406920000EC000078
:0406930000ED000076
:0406940000ED000075
:0406950000EE000073
:0406960000EF000071
:0406970000EE000071
:0406980000EE000070
:0406990000EF00006E
:04069A0000F000006C
:04069B0000EF00006C
:04069C0000EE00006C
:04069D0000EF00006A
:04069E0000EF000069
:04069F0000F0000067
:0406A00000F0000066
:0406A10000F0000065
:0406A20000F0000064
:0406A30000F0000063
:0406A40000F1000061
:0406A50000F200005F
:0406A60000F200005E
:0406A70000F300005C
:0406A80000F300005B
:0406A90000F300005A
:0406AA0000F4000058
:0406AB0000F4000057
:0406AC0000F4000056
:0406AD0000F4000055
:0406AE0000F4000054
:0406AF0000F4000053
:0406B00000F4000052
:0406B10000F5000050
:0406B20000F500004F
:0406B30000F500004E
:0406B40000F500004D
:0406B50000F500004C
:0406B60000F600004A
:0406B70000F6000049
:0406B80000F5000049
:0406B90000F6000047
:0406BA0000F6000046
:0406BB0000F7000044
:0406BC0000F7000043
:0406BD0000F7000042
:0406BE0000F8000040
:0406BF0000F800003F
:0406C00000F700003F
:0406C10000F800003D
:0406C20000F800003C
:0406C30000F800003B
:0406C40000F800003A
:0406C50000F8000039
:0406C60000F9000037
:0406C70000F9000036
:0406C80000F9000035
:0406C90000F8000035
:0406CA0000F8000034
:0406CB0000F8000033
:0406CC0000F8000032
:0406CD0000F8000031
:0406CE0000F8000030
:0406CF0000F800002F
:0406D00000F800002E
:0406D10000F800002D
:0406D20000F800002C
:0406D30000F800002B
:0406D40000F800002A
:0406D50000F8000029
:0406D60000F8000028
:0406D70000F8000027
:0406D80000F9000025
:0406D90000F9000024
:0406DA0000F9000023
:0406DB0000F9000022
:0406DC0000F9000021
:0406DD0000FA00001F
:0406DE0000FA00001E
:0406DF0000FA00001D
:0406E00000D1000045
:0406E10000D2000043
:0406E20000D3000041
:0406E30000D400003F
:0406E40000D500003D
:0406E50000D500003C
:0406E60000D500003B
:0406E70000D500003A
:0406E80000D5000039
:0406E90000D5000038
:0406EA0000D6000036
:0406EB0000D6000035
:0406EC0000D7000033
:0406ED0000D7000032
:0406EE0000D8000030
:0406EF0000D800002F
:0406F00000D800002E
:0406F10000D800002D
:0406F20000D800002C
:0406F30000D900002A
:0406F40000D9000029
:0406F50000D9000028
:0406F60000D9000027
:0406F70000DA000025
:0406F80000DA000024
:0406F90000DB000022
:0406FA0000DB000021
:0406FB0000DB000020
:0406FC0000DA000020
:0406FD0000DB00001E
:0406FE0000DB00001D
:0406FF0000DB00001C
:0407000000DD000018
:0407010000DD000017
:0407020000DD000016
:0407030000DD000015
:0407040000DE000013
:0407050000DE000012
:0407060000DE000011
:0407070000DE000010
:0407080000DD000010
:0407090000DE00000E
:04070A0000DF00000C
:04070B0000DF00000B
:04070C0000DF00000A
:04070D0000DF000009
:04070E0000E0000007
:04070F0000E1000005
:0407100000DF000006
:04071100009A00004A
:0407120000410000A2
:04071300004B000097
:040714000068000079
:0407150000D600000A
:0407160000E00000FF
:0407170000E20000FC
:0407180000E20000FB
:0407190000E30000F9
:04071A0000E30000F8
:04071B0000E40000F6
:04071C0000E50000F4
:04071D0000E50000F3
:04071E0000E50000F2
:04071F0000E60000F0
:0407200000E60000EF
:0407210000E60000EE
:0407220000E70000EC
:0407230000E70000EB
:0407240000E70000EA
:0407250000E80000E8
:0407260000E80000E7
:0407270000E90000E5
:0407280000E90000E4
:0407290000E90000E3
:04072A0000E90000E2
:04072B0000EA0000E0
:04072C0000EA0000DF
:04072D0000EA0000DE
:04072E0000EB0000DC
:04072F0000EC0000DA
:0407300000EB0000DA
:0407310000EC0000D8
:0407320000EC0000D7
:0407330000EC0000D6
:0407340000EC0000D5
:0407350000ED0000D3
:0407360000EE0000D1
:0407370000ED0000D1
:0407380000EE0000CF
:0407390000EF0000CD
:04073A0000EF0000CC
:04073B0000EF0000CB
:04073C0000EE0000CB
:04073D0000EF0000C9
:04073E0000EF0000C8
:04073F0000F00000C6
:0407400000F00000C5
:0407410000F00000C4
:0407420000F00000C3
:0407430000F10000C1
:0407440000F10000C0
:0407450000F20000BE
:0407460000F20000BD
:0407470000F20000BC
:0407480000F20000BB
:0407490000F30000B9
:04074A0000F30000B8
:04074B0000F30000B7
:04074C0000F30000B6
:04074D0000F30000B5
:04074E0000F30000B4
:04074F0000F40000B2
:0407500000F50000B0
:0407510000F50000AF
:0407520000F60000AD
:0407530000F60000AC
:0407540000F50000AC
:0407550000F60000AA
:0407560000F60000A9
:0407570000F70000A7
:0407580000F70000A6
:0407590000F70000A5
:04075A0000F70000A4
:04075B0000F70000A3
:04075C0000F80000A1
:04075D0000F80000A0
:04075E0000F800009F
:04075F0000F800009E
:0407600000F800009D
:0407610000F800009C
:0407620000F900009A
:0407630000F800009A
:0407640000F8000099
:0407650000F8000098
:0407660000F8000097
:0407670000F9000095
:0407680000F8000095
:0407690000F7000095
:04076A0000F6000095
:04076B0000F7000093
:04076C0000F8000091
:04076D0000F8000090
:04076E0000F800008F
:04076F0000F800008E
:0407700000F800008D
:0407710000F800008C
:0407720000F800008B
:0407730000F800008A
:0407740000F9000088
:0407750000F9000087
:0407760000F9000086
:0407770000F9000085
:0407780000F9000084
:0407790000FA000082
:04077A0000FA000081
:04077B0000FB00007F
:04077C0000FB00007E
:04077D0000FC00007C
:04077E0000FC00007B
:04077F0000FD000079
:0407800000D30000A2
:0407810000D30000A1
:0407820000D400009F
:0407830000D400009E
:0407840000D500009C
:0407850000D500009B
:0407860000D500009A
:0407870000D5000099
:0407880000D5000098
:0407890000D6000096
:04078A0000D6000095
:04078B0000D7000093
:04078C0000D7000092
:04078D0000D8000090
:04078E0000D800008F
:04078F0000D800008E
:0407900000D900008C
:0407910000D900008B
:0407920000D900008A
:0407930000D9000089
:0407940000DA000087
:0407950000DA000086
:0407960000DA000085
:0407970000DA000084
:0407980000DB000082
:0407990000DB000081
:04079A0000DB000080
:04079B0000DB00007F
:04079C0000DA00007F
:04079D0000DB00007D
:04079E0000DB00007C
:04079F0000DB00007B
:0407A00000DC000079
:0407A10000DD000077
:0407A20000DD000076
:0407A30000DE000074
:0407A40000DE000073
:0407A50000DE000072
:0407A60000DE000071
:0407A70000DE000070
:0407A80000DD000070
:0407A90000DD00006F
:0407AA0000DE00006D
:0407AB0000DE00006C
:0407AC0000DE00006B
:0407AD0000DF000069
:0407AE0000DF000068
:0407AF0000E0000066
:0407B00000DE000067
:0407B10000840000C0
:0407B20000930000B0
:0407B30000D300006F
:0407B40000D500006C
:0407B50000DC000064
:0407B60000E100005E
:0407B70000E300005B
:0407B80000E300005A
:0407B90000E3000059
:0407BA0000E4000057
:0407BB0000E5000055
:0407BC0000E5000054
:0407BD0000E5000053
:0407BE0000E5000052
:0407BF0000E6000050
:0407C00000E5000050
:0407C10000E600004E
:0407C20000E700004C
:0407C30000E700004B
:0407C40000E700004A
:0407C50000E7000049
:0407C60000E8000047
:0407C70000E9000045
:0407C80000E9000044
:0407C90000E9000043
:0407CA0000EA000041
:0407CB0000EA000040
:0407CC0000EA00003F
:0407CD0000EA00003E
:0407CE0000EB00003C
:0407CF0000EC00003A
:0407D00000EB00003A
:0407D10000EC000038
:0407D20000EC000037
:0407D30000EC000036
:0407D40000EC000035
:0407D50000ED000033
:0407D60000ED000032
:0407D70000EC000032
:0407D80000EE00002F
:0407D90000EF00002D
:0407DA0000EF00002C
:0407DB0000EF00002B
:0407DC0000EF00002A
:0407DD0000EF000029
:0407DE0000F0000027
:0407DF0000F0000026
:0407E00000F0000025
:0407E10000F0000024
:0407E20000F1000022
:0407E30000F1000021
:0407E40000F1000020
:0407E50000F200001E
:0407E60000F200001D
:0407E70000F200001C
:0407E80000F300001A
:0407E90000F3000019
:0407EA0000F4000017
:0407EB0000F3000017
:0407EC0000F3000016
:0407ED0000F3000015
:0407EE0000F3000014
:0407EF0000F4000012
:0407F00000F4000011
:0407F10000F500000F
:0407F20000F500000E
:0407F30000F500000D
:0407F40000F500000C
:0407F50000F500000B
:0407F60000F6000009
:0407F70000F6000008
:0407F80000F7000006
:0407F90000F7000005
:0407FA0000F7000004
:0407FB0000F6000004
:0407FC0000F7000002
:0407FD0000F7000001
:0407FE0000F80000FF
:0407FF0000F80000FE
:0408000000F80000FC
:0408010000F80000FB
:0408020000F80000FA
:0408030000F80000F9
:0408040000F80000F8
:0408050000F80000F7
:0408060000F80000F6
:0408070000F80000F5
:0408080000FA0000F2
:0408090000F90000F2
:04080A0000F80000F2
:04080B0000F80000F1
:04080C0000F80000F0
:04080D0000F80000EF
:04080E0000F70000EF
:04080F0000F70000EE
:0408100000F80000EC
:0408110000F80000EB
:0408120000F80000EA
:0408130000F90000E8
:0408140000FA0000E6
:0408150000FB0000E4
:0408160000FB0000E3
:0408170000FB0000E2
:0408180000FB0000E1
:0408190000FC0000DF
:04081A0000FD0000DD
:04081B0000FD0000DC
:04081C0000FE0000DA
:04081D0000FE0000D9
:04081E0000FE0000D8
:04081F0000FE0000D7
:0408200000D4000000
:0408210000D40000FF
:0408220000D40000FE
:0408230000D40000FD
:0408240000D50000FB
:0408250000D50000FA
:0408260000D50000F9
:0408270000D50000F8
:0408280000D60000F6
:0408290000D60000F5
:04082A0000D70000F3
:04082B0000D70000F2
:04082C0000D70000F1
:04082D0000D70000F0
:04082E0000D80000EE
:04082F0000D80000ED
:0408300000D90000EB
:0408310000D90000EA
:0408320000D90000E9
:0408330000D90000E8
:0408340000D90000E7
:0408350000DA0000E5
:0408360000DA0000E4
:0408370000DA0000E3
:0408380000DA0000E2
:0408390000DB0000E0
:04083A0000DB0000DF
:04083B0000DA0000DF
:04083C0000DB0000DD
:04083D0000DC0000DB
:04083E0000DC0000DA
:04083F0000DC0000D9
:0408400000DB0000D9
:0408410000DC0000D7
:0408420000DD0000D5
:0408430000DD0000D4
:0408440000DD0000D3
:0408450000DD0000D2
:0408460000DD0000D1
:0408470000DD0000D0
:0408480000DE0000CE
:0408490000DE0000CD
:04084A0000DE0000CC
:04084B0000DF0000CA
:04084C0000DF0000C9
:04084D0000DF0000C8
:04084E0000DF0000C7
:04084F0000DF0000C6
:0408500000A90000FB
:04085100005700004C
:04085200005800004A
:040853000080000021
:04085400009E000002
:0408550000C90000D6
:0408560000DE0000C0
:0408570000E10000BC
:0408580000E30000B9
:0408590000E30000B8
:04085A0000E40000B6
:04085B0000E50000B4
:04085C0000E50000B3
:04085D0000E50000B2
:04085E0000E50000B1
:04085F0000E60000AF
:0408600000E50000AF
:0408610000E60000AD
:0408620000E60000AC
:0408630000E70000AA
:0408640000E70000A9
:0408650000E70000A8
:0408660000E80000A6
:0408670000E80000A5
:0408680000E90000A3
:0408690000E90000A2
:04086A0000EA0000A0
:04086B0000EA00009F
:04086C0000EA00009E
:04086D0000EA00009D
:04086E0000EB00009B
:04086F0000EC000099
:0408700000EC000098
:0408710000ED000096
:0408720000ED000095
:0408730000EC000095
:0408740000EC000094
:0408750000ED000092
:0408760000ED000091
:0408770000EC000091
:0408780000EE00008E
:0408790000EF00008C
:04087A0000EF00008B
:04087B0000EF00008A
:04087C0000EF000089
:04087D0000EF000088
:04087E0000F0000086
:04087F0000F0000085
:0408800000EF000085
:0408810000F0000083
:0408820000F0000082
:0408830000F1000080
:0408840000F200007E
:0408850000F200007D
:0408860000F300007B
:0408870000F300007A
:0408880000F4000078
:0408890000F4000077
:04088A0000F4000076
:04088B0000F4000075
:04088C0000F4000074
:04088D0000F4000073
:04088E0000F4000072
:04088F0000F4000071
:0408900000F4000070
:0408910000F500006E
:0408920000F500006D
:0408930000F500006C
:0408940000F500006B
:0408950000F500006A
:0408960000F6000068
:0408970000F6000067
:0408980000F7000065
:0408990000F6000065
:04089A0000F6000064
:04089B0000F5000064
:04089C0000F5000063
:04089D0000F6000061
:04089E0000F700005F
:04089F0000F700005E
:0408A00000F700005D
:0408A10000F700005C
:0408A20000F700005B
:0408A30000F8000059
:0408A40000F7000059
:0408A50000F8000057
:0408A60000F8000056
:0408A70000F9000054
:0408A80000F8000054
:0408A90000F8000053
:0408AA0000F7000053
:0408AB0000F8000051
:0408AC0000F8000050
:0408AD0000F800004F
:0408AE0000F800004E
:0408AF0000F900004C
:0408B00000FA00004A
:0408B10000FA000049
:0408B20000FB000047
:0408B30000FB000046
:0408B40000FC000044
:0408B50000FD000042
:0408B60000FD000041
:0408B70000FE00003F
:0408B80000FD00003F
:0408B90000FE00003D
:0408BA0000FE00003C
:0408BB0000FE00003B
:0408BC0000FE00003A
:0408BD0000FE000039
:0408BE0000FD000039
:0408BF0000FD000038
:0408C00000D3000061
:0408C10000D400005F
:0408C20000D400005E
:0408C30000D500005C
:0408C40000D500005B
:0408C50000D500005A
:0408C60000D6000058
:0408C70000D6000057
:0408C80000D6000056
:0408C90000D6000055
:0408CA0000D7000053
:0408CB0000D7000052
:0408CC0000D7000051
:0408CD0000D7000050
:0408CE0000D700004F
:0408CF0000D700004E
:0408D00000D900004B
:0408D10000D800004B
:0408D20000D800004A
:0408D30000D8000049
:0408D40000D9000047
:0408D50000DA000045
:0408D60000DA000044
:0408D70000DA000043
:0408D80000DA000042
:0408D90000DA000041
:0408DA0000DA000040
:0408DB0000DA00003F
:0408DC0000DA00003E
:0408DD0000DB00003C
:0408DE0000DC00003A
:0408DF0000DC000039
:0408E00000DB000039
:0408E10000DC000037
:0408E20000DD000035
:0408E30000DD000034
:0408E40000DD000033
:0408E50000DD000032
:0408E60000DD000031
:0408E70000DE00002F
:0408E80000DE00002E
:0408E90000DE00002D
:0408EA0000DF00002B
:0408EB0000DF00002A
:0408EC0000E0000028
:0408ED0000E0000027
:0408EE0000DF000027
:0408EF0000DE000027
:0408F00000540000B0
:0408F10000290000DA
:0408F20000430000BF
:0408F30000450000BC
:0408F40000460000BA
:0408F500006F000090
:0408F60000B9000045
:0408F70000E100001C
:0408F80000E3000019
:0408F90000E3000018
:0408FA0000E4000016
:0408FB0000E5000014
:0408FC0000E5000013
:0408FD0000E5000012
:0408FE0000E5000011
:0408FF0000E600000F
:0409000000E500000E
:0409010000E500000D
:0409020000E600000B
:0409030000E7000009
:0409040000E7000008
:0409050000E7000007
:0409060000E8000005
:0409070000E8000004
:0409080000E9000002
:0409090000E9000001
:04090A0000EA0000FF
:04090B0000EA0000FE
:04090C0000EA0000FD
:04090D0000EB0000FB
:04090E0000EB0000FA
:04090F0000EC0000F8
:0409100000EB0000F8
:0409110000EC0000F6
:0409120000EC0000F5
:0409130000EC0000F4
:0409140000EC0000F3
:0409150000ED0000F1
:0409160000ED0000F0
:0409170000ED0000EF
:0409180000EE0000ED
:0409190000EF0000EB
:04091A0000EF0000EA
:04091B0000EE0000EA
:04091C0000EF0000E8
:04091D0000F00000E6
:04091E0000F00000E5
:04091F0000F00000E4
:0409200000F00000E3
:0409210000F00000E2
:0409220000F10000E0
:0409230000F20000DE
:0409240000F20000DD
:0409250000F30000DB
:0409260000F30000DA
:0409270000F30000D9
:0409280000F40000D7
:0409290000F40000D6
:04092A0000F40000D5
:04092B0000F40000D4
:04092C0000F40000D3
:04092D0000F40000D2
:04092E0000F40000D1
:04092F0000F40000D0
:0409300000F40000CF
:0409310000F50000CD
:0409320000F50000CC
:0409330000F50000CB
:0409340000F50000CA
:0409350000F50000C9
:0409360000F60000C7
:0409370000F60000C6
:0409380000F60000C5
:0409390000F60000C4
:04093A0000F60000C3
:04093B0000F60000C2
:04093C0000F60000C1
:04093D0000F60000C0
:04093E0000F70000BE
:04093F0000F70000BD
:0409400000F70000BC
:0409410000F70000BB
:0409420000F70000BA
:0409430000F80000B8
:0409440000F70000B8
:0409450000F80000B6
:0409460000F80000B5
:0409470000F90000B3
:0409480000F70000B4
:0409490000F70000B3
:04094A0000F80000B1
:04094B0000F90000AF
:04094C0000FA0000AD
:04094D0000FA0000AC
:04094E0000FB0000AA
:04094F0000FC0000A8
:0409500000FC0000A7
:0409510000FC0000A6
:0409520000FC0000A5
:0409530000FC0000A4
:0409540000FC0000A3
:0409550000FD0000A1
:0409560000FD0000A0
:0409570000FD00009F
:0409580000FD00009E
:0409590000FD00009D
:04095A0000FD00009C
:04095B0000FD00009B
:04095C0000FD00009A
:04095D0000FC00009A
:04095E0000FC000099
:04095F0000FC000098
:0409600000D30000C0
:0409610000D30000BF
:0409620000D40000BD
:0409630000D50000BB
:0409640000D50000BA
:0409650000D60000B8
:0409660000D60000B7
:0409670000D60000B6
:0409680000D60000B5
:0409690000D60000B4
:04096A0000D60000B3
:04096B0000D70000B1
:04096C0000D80000AF
:04096D0000D80000AE
:04096E0000D80000AD
:04096F0000D80000AC
:0409700000DA0000A9
:0409710000D90000A9
:0409720000D80000A9
:0409730000D90000A7
:0409740000DA0000A5
:0409750000DA0000A4
:0409760000DB0000A2
:0409770000DA0000A2
:0409780000DA0000A1
:0409790000DA0000A0
:04097A0000DA00009F
:04097B0000DA00009E
:04097C0000DA00009D
:04097D0000DB00009B
:04097E0000DB00009A
:04097F0000DB000099
:0409800000DC000097
:0409810000DC000096
:0409820000DD000094
:0409830000DD000093
:0409840000DD000092
:0409850000DD000091
:0409860000DE00008F
:0409870000DF00008D
:0409880000DE00008D
:0409890000DE00008C
:04098A0000DF00008A
:04098B0000E0000088
:04098C0000E1000086
:04098D0000E1000085
:04098E0000E0000085
:04098F0000DF000085
:0409900000710000F2
:04099100003800002A
:04099200005700000A
:04099300006C0000F4
:04099400006E0000F1
:0409950000940000CA
:0409960000D4000089
:0409970000E000007C
:0409980000E3000078
:0409990000E3000077
:04099A0000E4000075
:04099B0000E5000073
:04099C0000E5000072
:04099D0000E5000071
:04099E0000E5000070
:04099F0000E600006E
:0409A00000E500006E
:0409A10000E500006D
:0409A20000E600006B
:0409A30000E7000069
:0409A40000E7000068
:0409A50000E7000067
:0409A60000E8000065
:0409A70000E8000064
:0409A80000E9000062
:0409A90000EA000060
:0409AA0000EA00005F
:0409AB0000EA00005E
:0409AC0000EA00005D
:0409AD0000EB00005B
:0409AE0000EB00005A
:0409AF0000EC000058
:0409B00000EA000059
:0409B10000EB000057
:0409B20000EB000056
:0409B30000EB000055
:0409B40000EC000053
:0409B50000ED000051
:0409B60000ED000050
:0409B70000ED00004F
:0409B80000EE00004D
:0409B90000EF00004B
:0409BA0000EF00004A
:0409BB0000EE00004A
:0409BC0000EF000048
:0409BD0000F0000046
:0409BE0000F0000045
:0409BF0000F0000044
:0409C00000F0000043
:0409C10000F1000041
:0409C20000F1000040
:0409C30000F200003E
:0409C40000F200003D
:0409C50000F200003C
:0409C60000F200003B
:0409C70000F200003A
:0409C80000F4000037
:0409C90000F4000036
:0409CA0000F3000036
:0409CB0000F3000035
:0409CC0000F3000034
:0409CD0000F4000032
:0409CE0000F4000031
:0409CF0000F3000031
:0409D00000F400002F
:0409D10000F400002E
:0409D20000F400002D
:0409D30000F400002C
:0409D40000F400002B
:0409D50000F400002A
:0409D60000F5000028
:0409D70000F6000026
:0409D80000F6000025
:0409D90000F6000024
:0409DA0000F6000023
:0409DB0000F7000021
:0409DC0000F7000020
:0409DD0000F700001F
:0409DE0000F800001D
:0409DF0000F800001C
:0409E00000F700001C
:0409E10000F800001A
:0409E20000F8000019
:0409E30000F8000018
:0409E40000F8000017
:0409E50000F7000017
:0409E60000F8000015
:0409E70000F8000014
:0409E80000F9000012
:0409E90000FA000010
:0409EA0000FB00000E
:0409EB0000FC00000C
:0409EC0000FC00000B
:0409ED0000FC00000A
:0409EE0000FC000009
:0409EF0000FD000007
:0409F00000FD000006
:0409F10000FC000006
:0409F20000FC000005
:0409F30000FB000005
:0409F40000FB000004
:0409F50000FB000003
:0409F60000FB000002
:0409F70000FA000002
:0409F80000FB000000
:0409F90000FB0000FF
:0409FA0000FB0000FE
:0409FB0000FB0000FD
:0409FC0000FB0000FC
:0409FD0000FB0000FB
:0409FE0000FC0000F9
:0409FF0000FC0000F8
:040A000000D300001F
:040A010000D400001D
:040A020000D500001B
:040A030000D500001A
:040A040000D5000019
:040A050000D6000017
:040A060000D6000016
:040A070000D5000016
:040A080000D6000014
:040A090000D6000013
:040A0A0000D6000012
:040A0B0000D7000010
:040A0C0000D700000F
:040A0D0000D800000D
:040A0E0000D800000C
:040A0F0000D800000B
:040A100000D9000009
:040A110000D9000008
:040A120000D9000007
:040A130000D9000006
:040A140000D9000005
:040A150000D9000004
:040A160000D9000003
:040A170000D9000002
:040A180000D9000001
:040A190000DA0000FF
:040A1A0000DA0000FE
:040A1B0000DA0000FD
:040A1C0000DB0000FB
:040A1D0000DC0000F9
:040A1E0000DC0000F8
:040A1F0000DC0000F7
:040A200000DB0000F7
:040A210000DF0000F2
:040A220000DB0000F5
:040A230000DF0000F0
:040A240000DC0000F2
:040A250000DD0000F0
:040A260000DF0000ED
:040A270000DE0000ED
:040A280000DE0000EC
:040A290000DE0000EB
:040A2A0000DD0000EB
:040A2B0000E20000E5
:040A2C0000DF0000E7
:040A2D0000E20000E3
:040A2E0000DF0000E5
:040A2F0000BE000005
:040A3000005300006F
:040A3100003600008B
:040A3200008B000035
:040A33000067000058
:040A3400005F00005F
:040A3500007E00003F
:040A360000B6000006
:040A370000E20000D9
:040A380000E30000D7
:040A390000E10000D8
:040A3A0000E30000D5
:040A3B0000E10000D6
:040A3C0000E60000D0
:040A3D0000E50000D0
:040A3E0000E00000D4
:040A3F0000E60000CD
:040A400000E70000CB
:040A410000E60000CB
:040A420000E70000C9
:040A430000E70000C8
:040A440000E70000C7
:040A450000E70000C6
:040A460000E80000C4
:040A470000EA0000C1
:040A480000E90000C1
:040A490000E90000C0
:040A4A0000E90000BF
:040A4B0000EA0000BD
:040A4C0000EA0000BC
:040A4D0000EA0000BB
:040A4E0000EA0000BA
:040A4F0000EB0000B8
:040A500000EB0000B7
:040A510000EB0000B6
:040A520000EB0000B5
:040A530000EB0000B4
:040A540000EC0000B2
:040A550000ED0000B0
:040A560000EE0000AE
:040A570000EE0000AD
:040A580000EE0000AC
:040A590000EE0000AB
:040A5A0000EF0000A9
:040A5B0000EF0000A8
:040A5C0000EF0000A7
:040A5D0000EF0000A6
:040A5E0000F00000A4
:040A5F0000F10000A2
:040A600000F10000A1
:040A610000F10000A0
:040A620000F100009F
:040A630000F200009D
:040A640000F300009B
:040A650000F300009A
:040A660000F3000099
:040A670000F3000098
:040A680000F4000096
:040A690000F4000095
:040A6A0000F4000094
:040A6B0000F4000093
:040A6C0000F3000093
:040A6D0000F3000092
:040A6E0000F4000090
:040A6F0000F500008E
:040A700000F300008F
:040A710000F400008D
:040A720000F500008B
:040A730000F500008A
:040A740000F5000089
:040A750000F5000088
:040A760000F5000087
:040A770000F5000086
:040A780000F6000084
:040A790000F6000083
:040A7A0000F6000082
:040A7B0000F7000080
:040A7C0000F700007F
:040A7D0000F800007D
:040A7E0000F800007C
:040A7F0000F800007B
:040A800000F800007A
:040A810000F8000079
:040A820000F8000078
:040A830000F8000077
:040A840000F9000075
:040A850000FA000073
:040A860000FA000072
:040A870000FA000071
:040A880000FC00006E
:040A890000FC00006D
:040A8A0000FC00006C
:040A8B0000FC00006B
:040A8C0000FC00006A
:040A8D0000FC000069
:040A8E0000FC000068
:040A8F0000FC000067
:040A900000FC000066
:040A910000FB000066
:040A920000FA000066
:040A930000FA000065
:040A940000FA000064
:040A950000FA000063
:040A960000FB000061
:040A970000FC00005F
:040A980000FB00005F
:040A990000FB00005E
:040A9A0000FB00005D
:040A9B0000FB00005C
:040A9C0000FB00005B
:040A9D0000FB00005A
:040A9E0000FC000058
:040A9F0000FC000057
:040AA00000D300007F
:040AA10000D400007D
:040AA20000D500007B
:040AA30000D400007B
:040AA40000D5000079
:040AA50000D6000077
:040AA60000D6000076
:040AA70000D5000076
:040AA80000D6000074
:040AA90000D6000073
:040AAA0000D6000072
:040AAB0000D7000070
:040AAC0000D700006F
:040AAD0000D800006D
:040AAE0000D800006C
:040AAF0000D800006B
:040AB00000D9000069
:040AB10000D9000068
:040AB20000D9000067
:040AB30000D9000066
:040AB40000DA000064
:040AB50000DA000063
:040AB60000DA000062
:040AB70000DA000061
:040AB80000DA000060
:040AB90000DB00005E
:040ABA0000DB00005D
:040ABB0000DB00005C
:040ABC0000DB00005B
:040ABD0000DC000059
:040ABE0000DC000058
:040ABF0000DC000057
:040AC00000DE000054
:040AC10000DD000054
:040AC20000DC000054
:040AC30000DE000051
:040AC40000DE000050
:040AC50000DF00004E
:040AC60000DF00004D
:040AC70000DF00004C
:040AC80000DE00004C
:040AC90000E3000046
:040ACA0000DB00004D
:040ACB0000DC00004B
:040ACC0000DD000049
:040ACD0000E0000045
:040ACE0000CB000059
:040ACF00007C0000A7
:040AD00000330000EF
:040AD10000330000EE
:040AD20000A600007A
:040AD300003F0000E0
:040AD40000380000E6
:040AD50000370000E6
:040AD60000700000AC
:040AD70000AB000070
:040AD80000E1000039
:040AD90000E2000037
:040ADA0000E1000037
:040ADB0000E5000032
:040ADC0000E4000032
:040ADD0000E4000031
:040ADE0000E600002E
:040ADF0000E600002D
:040AE00000E500002D
:040AE10000E500002C
:040AE20000E600002A
:040AE30000E7000028
:040AE40000E7000027
:040AE50000E8000025
:040AE60000E9000023
:040AE70000EA000021
:040AE80000E9000021
:040AE90000E8000021
:040AEA0000E900001F
:040AEB0000E900001E
:040AEC0000E900001D
:040AED0000E900001C
:040AEE0000EA00001A
:040AEF0000EB000018
:040AF00000EB000017
:040AF10000EB000016
:040AF20000EB000015
:040AF30000EC000013
:040AF40000EC000012
:040AF50000ED000010
:040AF60000EE00000E
:040AF70000EE00000D
:040AF80000EE00000C
:040AF90000EE00000B
:040AFA0000EF000009
:040AFB0000EF000008
:040AFC0000EF000007
:040AFD0000EF000006
:040AFE0000F0000004
:040AFF0000F1000002
:040B000000F1000000
:040B010000F10000FF
:040B020000F10000FE
:040B030000F20000FC
:040B040000F20000FB
:040B050000F30000F9
:040B060000F30000F8
:040B070000F20000F8
:040B080000F40000F5
:040B090000F40000F4
:040B0A0000F40000F3
:040B0B0000F30000F3
:040B0C0000F30000F2
:040B0D0000F30000F1
:040B0E0000F40000EF
:040B0F0000F50000ED
:040B100000F40000ED
:040B110000F50000EB
:040B120000F60000E9
:040B130000F60000E8
:040B140000F60000E7
:040B150000F60000E6
:040B160000F70000E4
:040B170000F70000E3
:040B180000F70000E2
:040B190000F70000E1
:040B1A0000F70000E0
:040B1B0000F80000DE
:040B1C0000F80000DD
:040B1D0000F80000DC
:040B1E0000F80000DB
:040B1F0000F80000DA
:040B200000FA0000D7
:040B210000FA0000D6
:040B220000FA0000D5
:040B230000FA0000D4
:040B240000FA0000D3
:040B250000FA0000D2
:040B260000FA0000D1
:040B270000FA0000D0
:040B280000FA0000CF
:040B290000FA0000CE
:040B2A0000FA0000CD
:040B2B0000FA0000CC
:040B2C0000FA0000CB
:040B2D0000FA0000CA
:040B2E0000FA0000C9
:040B2F0000FA0000C8
:040B300000F90000C8
:040B310000F90000C7
:040B320000F90000C6
:040B330000F90000C5
:040B340000F90000C4
:040B350000FA0000C2
:040B360000FB0000C0
:040B370000FB0000BF
:040B380000FB0000BE
:040B390000FB0000BD
:040B3A0000FB0000BC
:040B3B0000FB0000BB
:040B3C0000FB0000BA
:040B3D0000FC0000B8
:040B3E0000FC0000B7
:040B3F0000FC0000B6
:040B400000D40000DD
:040B410000D40000DC
:040B420000D50000DA
:040B430000D40000DA
:040B440000D50000D8
:040B450000D60000D6
:040B460000D60000D5
:040B470000D50000D5
:040B480000D60000D3
:040B490000D60000D2
:040B4A0000D60000D1
:040B4B0000D70000CF
:040B4C0000D70000CE
:040B4D0000D80000CC
:040B4E0000D80000CB
:040B4F0000D80000CA
:040B500000D90000C8
:040B510000D90000C7
:040B520000D90000C6
:040B530000D90000C5
:040B540000D90000C4
:040B550000D90000C3
:040B560000DA0000C1
:040B570000DA0000C0
:040B580000DB0000BE
:040B590000DB0000BD
:040B5A0000DB0000BC
:040B5B0000DB0000BB
:040B5C0000DB0000BA
:040B5D0000DC0000B8
:040B5E0000DC0000B7
:040B5F0000DC0000B6
:040B600000DB0000B6
:040B610000DB0000B5
:040B620000DF0000B0
:040B630000DF0000AF
:040B640000E00000AD
:040B650000DE0000AE
:040B660000DE0000AD
:040B670000E00000AA
:040B680000DF0000AA
:040B690000DE0000AA
:040B6A0000E30000A4
:040B6B0000E20000A4
:040B6C0000DD0000A8
:040B6D0000CA0000BA
:040B6E0000860000FD
:040B6F000081000001
:040B7000004B000036
:040B7100005A000026
:040B720000A30000DC
:040B7300006200001C
:040B74000049000034
:040B75000039000043
:040B76000044000037
:040B7700006000001A
:040B780000A30000D6
:040B790000DF000099
:040B7A0000E7000090
:040B7B0000E2000094
:040B7C0000DF000096
:040B7D0000E600008E
:040B7E0000E400008F
:040B7F0000E400008E
:040B800000E600008B
:040B810000E7000089
:040B820000E7000088
:040B830000E7000087
:040B840000E7000086
:040B850000E8000084
:040B860000E9000082
:040B870000E8000082
:040B880000E9000080
:040B890000E900007F
:040B8A0000EA00007D
:040B8B0000EA00007C
:040B8C0000EA00007B
:040B8D0000E900007B
:040B8E0000EA000079
:040B8F0000EB000077
:040B900000EB000076
:040B910000EB000075
:040B920000EB000074
:040B930000EC000072
:040B940000EC000071
:040B950000ED00006F
:040B960000ED00006E
:040B970000EE00006C
:040B980000EE00006B
:040B990000EE00006A
:040B9A0000EF000068
:040B9B0000EF000067
:040B9C0000EF000066
:040B9D0000EF000065
:040B9E0000F0000063
:040B9F0000F1000061
:040BA00000F200005F
:040BA10000F200005E
:040BA20000F200005D
:040BA30000F200005C
:040BA40000F200005B
:040BA50000F200005A
:040BA60000F2000059
:040BA70000F2000058
:040BA80000F3000056
:040BA90000F3000055
:040BAA0000F3000054
:040BAB0000F3000053
:040BAC0000F3000052
:040BAD0000F4000050
:040BAE0000F400004F
:040BAF0000F500004D
:040BB00000F400004D
:040BB10000F500004B
:040BB20000F6000049
:040BB30000F5000049
:040BB40000F5000048
:040BB50000F6000046
:040BB60000F7000044
:040BB70000F7000043
:040BB80000F6000043
:040BB90000F7000041
:040BBA0000F7000040
:040BBB0000F800003E
:040BBC0000F800003D
:040BBD0000F800003C
:040BBE0000F700003C
:040BBF0000F700003B
:040BC00000F700003A
:040BC10000F8000038
:040BC20000F8000037
:040BC30000F7000037
:040BC40000F7000036
:040BC50000F7000035
:040BC60000F8000033
:040BC70000F8000032
:040BC80000F9000030
:040BC90000F900002F
:040BCA0000F900002E
:040BCB0000F800002E
:040BCC0000F800002D
:040BCD0000F800002C
:040BCE0000F800002B
:040BCF0000F800002A
:040BD00000F8000029
:040BD10000F9000027
:040BD20000F9000026
:040BD30000FA000024
:040BD40000FA000023
:040BD50000FB000021
:040BD60000FB000020
:040BD70000FB00001F
:040BD80000FC00001D
:040BD90000FC00001C
:040BDA0000FC00001B
:040BDB0000FC00001A
:040BDC0000FC000019
:040BDD0000FC000018
:040BDE0000FC000017
:040BDF0000FC000016
:040BE00000D400003D
:040BE10000D400003C
:040BE20000D400003B
:040BE30000D400003A
:040BE40000D5000038
:040BE50000D5000037
:040BE60000D6000035
:040BE70000D6000034
:040BE80000D6000033
:040BE90000D7000031
:040BEA0000D7000030
:040BEB0000D700002F
:040BEC0000D700002E
:040BED0000D800002C
:040BEE0000D800002B
:040BEF0000D800002A
:040BF00000D8000029
:040BF10000D8000028
:040BF20000D8000027
:040BF30000D9000025
:040BF40000D9000024
:040BF50000D9000023
:040BF60000D9000022
:040BF70000D9000021
:040BF80000DA00001F
:040BF90000DB00001D
:040BFA0000DB00001C
:040BFB0000DB00001B
:040BFC0000DB00001A
:040BFD0000DC000018
:040BFE0000DD000016
:040BFF0000DC000016
:040C000000DE000012
:040C010000DE000011
:040C020000DE000010
:040C030000DC000011
:040C040000DE00000E
:040C050000DA000011
:040C060000DF00000B
:040C070000DF00000A
:040C080000DF000009
:040C090000DC00000B
:040C0A0000DD000009
:040C0B0000DE000007
:040C0C0000BF000025
:040C0D000080000063
:040C0E00007A000068
:040C0F00007700006A
:040C1000004500009B
:040C1100009100004E
:040C12000075000069
:040C1300006E00006F
:040C1400006E00006E
:040C1500004E00008D
:040C1600003D00009D
:040C17000047000092
:040C1800006C00006C
:040C19000091000046
:040C1A0000E00000F6
:040C1B0000E30000F2
:040C1C0000EA0000EA
:040C1D0000E60000ED
:040C1E0000E50000ED
:040C1F0000E80000E9
:040C200000E60000EA
:040C210000E70000E8
:040C220000E80000E6
:040C230000E70000E6
:040C240000E70000E5
:040C250000E80000E3
:040C260000E80000E2
:040C270000E80000E1
:040C280000E90000DF
:040C290000E90000DE
:040C2A0000EA0000DC
:040C2B0000EA0000DB
:040C2C0000E90000DB
:040C2D0000E90000DA
:040C2E0000EA0000D8
:040C2F0000EC0000D5
:040C300000EB0000D5
:040C310000EB0000D4
:040C320000EB0000D3
:040C330000EB0000D2
:040C340000EC0000D0
:040C350000EC0000CF
:040C360000ED0000CD
:040C370000ED0000CC
:040C380000EE0000CA
:040C390000EF0000C8
:040C3A0000EF0000C7
:040C3B0000EF0000C6
:040C3C0000F00000C4
:040C3D0000F00000C3
:040C3E0000F00000C2
:040C3F0000F10000C0
:040C400000F10000BF
:040C410000F20000BD
:040C420000F20000BC
:040C430000F20000BB
:040C440000F20000BA
:040C450000F20000B9
:040C460000F20000B8
:040C470000F20000B7
:040C480000F30000B5
:040C490000F30000B4
:040C4A0000F30000B3
:040C4B0000F30000B2
:040C4C0000F30000B1
:040C4D0000F40000AF
:040C4E0000F40000AE
:040C4F0000F50000AC
:040C500000F40000AC
:040C510000F50000AA
:040C520000F50000A9
:040C530000F40000A9
:040C540000F40000A8
:040C550000F40000A7
:040C560000F50000A5
:040C570000F50000A4
:040C580000F50000A3
:040C590000F60000A1
:040C5A0000F700009F
:040C5B0000F700009E
:040C5C0000F700009D
:040C5D0000F700009C
:040C5E0000F700009B
:040C5F0000F700009A
:040C600000F7000099
:040C610000F8000097
:040C620000F8000096
:040C630000F8000095
:040C640000F8000094
:040C650000F8000093
:040C660000F9000091
:040C670000F9000090
:040C680000F900008F
:040C690000F900008E
:040C6A0000F900008D
:040C6B0000F900008C
:040C6C0000F900008B
:040C6D0000F900008A
:040C6E0000F9000089
:040C6F0000F9000088
:040C700000FA000086
:040C710000FA000085
:040C720000FB000083
:040C730000FB000082
:040C740000FC000080
:040C750000FC00007F
:040C760000FB00007F
:040C770000FB00007E
:040C780000FC00007C
:040C790000FC00007B
:040C7A0000FD000079
:040C7B0000FD000078
:040C7C0000FD000077
:040C7D0000FD000076
:040C7E0000FD000075
:040C7F0000FD000074
